{"contracts/PatientData.sol":{"PatientData":{"abi":[{"inputs":[{"internalType":"uint256","name":"patientId","type":"uint256"}],"name":"deletePatient","outputs":[],"stateMutability":"nonpayable","type":"function"},{"inputs":[{"internalType":"uint256","name":"patientId","type":"uint256"},{"internalType":"string","name":"nome","type":"string"},{"internalType":"string","name":"cpf","type":"string"},{"internalType":"string","name":"dataNascimento","type":"string"},{"internalType":"string","name":"dataConsulta","type":"string"},{"internalType":"string","name":"relato","type":"string"},{"internalType":"string[]","name":"medicacoes","type":"string[]"},{"internalType":"string[]","name":"doencasPreexistentes","type":"string[]"},{"internalType":"string[]","name":"alergias","type":"string[]"},{"internalType":"string","name":"diagnostico","type":"string"},{"internalType":"string","name":"examesSolicitados","type":"string"},{"internalType":"string","name":"anotacoesRetorno","type":"string"}],"name":"editPatientData","outputs":[],"stateMutability":"nonpayable","type":"function"},{"inputs":[],"name":"patientCount","outputs":[{"internalType":"uint256","name":"","type":"uint256"}],"stateMutability":"view","type":"function"},{"inputs":[{"internalType":"uint256","name":"","type":"uint256"}],"name":"patients","outputs":[{"internalType":"string","name":"nome","type":"string"},{"internalType":"string","name":"cpf","type":"string"},{"internalType":"string","name":"dataNascimento","type":"string"},{"internalType":"string","name":"dataConsulta","type":"string"},{"internalType":"string","name":"relato","type":"string"},{"internalType":"string","name":"diagnostico","type":"string"},{"internalType":"string","name":"examesSolicitados","type":"string"},{"internalType":"string","name":"anotacoesRetorno","type":"string"}],"stateMutability":"view","type":"function"},{"inputs":[{"internalType":"string","name":"nome","type":"string"},{"internalType":"string","name":"cpf","type":"string"},{"internalType":"string","name":"dataNascimento","type":"string"},{"internalType":"string","name":"dataConsulta","type":"string"},{"internalType":"string","name":"relato","type":"string"},{"internalType":"string[]","name":"medicacoes","type":"string[]"},{"internalType":"string[]","name":"doencasPreexistentes","type":"string[]"},{"internalType":"string[]","name":"alergias","type":"string[]"},{"internalType":"string","name":"diagnostico","type":"string"},{"internalType":"string","name":"examesSolicitados","type":"string"},{"internalType":"string","name":"anotacoesRetorno","type":"string"}],"name":"setPatientData","outputs":[],"stateMutability":"nonpayable","type":"function"}],"evm":{"bytecode":{"linkReferences":{},"object":"6080604052348015600f57600080fd5b506111768061001f6000396000f3fe608060405234801561001057600080fd5b50600436106100575760003560e01c806356f00aff1461005c57806367e574821461007157806393119a8314610084578063a0303c41146100b4578063b1e9b894146100cb575b600080fd5b61006f61006a366004610aaf565b6100de565b005b61006f61007f366004610cbc565b6101b2565b610097610092366004610cbc565b610271565b6040516100ab989796959493929190610d1b565b60405180910390f35b6100bd60015481565b6040519081526020016100ab565b61006f6100d9366004610dc9565b6106f1565b60008c8152602081905260409020806100f78d8261103c565b50600181016101068c8261103c565b50600281016101158b8261103c565b50600381016101248a8261103c565b5060048101610133898261103c565b50865161014990600583019060208a0190610875565b50855161015f9060068301906020890190610875565b5084516101759060078301906020880190610875565b5060088101610184858261103c565b5060098101610193848261103c565b50600a81016101a2838261103c565b5050505050505050505050505050565b6000818152602081905260408120906101cb82826108cb565b6101d96001830160006108cb565b6101e76002830160006108cb565b6101f56003830160006108cb565b6102036004830160006108cb565b610211600583016000610908565b61021f600683016000610908565b61022d600783016000610908565b61023b6008830160006108cb565b6102496009830160006108cb565b610257600a830160006108cb565b50506001805490600061026983611110565b919050555050565b60006020819052908152604090208054819061028c90610fb3565b80601f01602080910402602001604051908101604052809291908181526020018280546102b890610fb3565b80156103055780601f106102da57610100808354040283529160200191610305565b820191906000526020600020905b8154815290600101906020018083116102e857829003601f168201915b50505050509080600101805461031a90610fb3565b80601f016020809104026020016040519081016040528092919081815260200182805461034690610fb3565b80156103935780601f1061036857610100808354040283529160200191610393565b820191906000526020600020905b81548152906001019060200180831161037657829003601f168201915b5050505050908060020180546103a890610fb3565b80601f01602080910402602001604051908101604052809291908181526020018280546103d490610fb3565b80156104215780601f106103f657610100808354040283529160200191610421565b820191906000526020600020905b81548152906001019060200180831161040457829003601f168201915b50505050509080600301805461043690610fb3565b80601f016020809104026020016040519081016040528092919081815260200182805461046290610fb3565b80156104af5780601f10610484576101008083540402835291602001916104af565b820191906000526020600020905b81548152906001019060200180831161049257829003601f168201915b5050505050908060040180546104c490610fb3565b80601f01602080910402602001604051908101604052809291908181526020018280546104f090610fb3565b801561053d5780601f106105125761010080835404028352916020019161053d565b820191906000526020600020905b81548152906001019060200180831161052057829003601f168201915b50505050509080600801805461055290610fb3565b80601f016020809104026020016040519081016040528092919081815260200182805461057e90610fb3565b80156105cb5780601f106105a0576101008083540402835291602001916105cb565b820191906000526020600020905b8154815290600101906020018083116105ae57829003601f168201915b5050505050908060090180546105e090610fb3565b80601f016020809104026020016040519081016040528092919081815260200182805461060c90610fb3565b80156106595780601f1061062e57610100808354040283529160200191610659565b820191906000526020600020905b81548152906001019060200180831161063c57829003601f168201915b50505050509080600a01805461066e90610fb3565b80601f016020809104026020016040519081016040528092919081815260200182805461069a90610fb3565b80156106e75780601f106106bc576101008083540402835291602001916106e7565b820191906000526020600020905b8154815290600101906020018083116106ca57829003601f168201915b5050505050905088565b6040518061016001604052808c81526020018b81526020018a81526020018981526020018881526020018781526020018681526020018581526020018481526020018381526020018281525060008060015481526020019081526020016000206000820151816000019081610766919061103c565b506020820151600182019061077b908261103c565b5060408201516002820190610790908261103c565b50606082015160038201906107a5908261103c565b50608082015160048201906107ba908261103c565b5060a082015180516107d6916005840191602090910190610875565b5060c082015180516107f2916006840191602090910190610875565b5060e0820151805161080e916007840191602090910190610875565b506101008201516008820190610824908261103c565b50610120820151600982019061083a908261103c565b50610140820151600a820190610850908261103c565b5050600180549150600061086383611127565b91905055505050505050505050505050565b8280548282559060005260206000209081019282156108bb579160200282015b828111156108bb57825182906108ab908261103c565b5091602001919060010190610895565b506108c7929150610922565b5090565b5080546108d790610fb3565b6000825580601f106108e7575050565b601f016020900490600052602060002090810190610905919061093f565b50565b508054600082559060005260206000209081019061090591905b808211156108c757600061093682826108cb565b50600101610922565b5b808211156108c75760008155600101610940565b634e487b7160e01b600052604160045260246000fd5b604051601f8201601f191681016001600160401b038111828210171561099257610992610954565b604052919050565b600082601f8301126109ab57600080fd5b81356001600160401b038111156109c4576109c4610954565b6109d7601f8201601f191660200161096a565b8181528460208386010111156109ec57600080fd5b816020850160208301376000918101602001919091529392505050565b600082601f830112610a1a57600080fd5b81356001600160401b03811115610a3357610a33610954565b8060051b610a436020820161096a565b91825260208185018101929081019086841115610a5f57600080fd5b6020860192505b83831015610aa55782356001600160401b03811115610a8457600080fd5b610a93886020838a010161099a565b83525060209283019290910190610a66565b9695505050505050565b6000806000806000806000806000806000806101808d8f031215610ad257600080fd5b8c359b506001600160401b0360208e01351115610aee57600080fd5b610afe8e60208f01358f0161099a565b9a506001600160401b0360408e01351115610b1857600080fd5b610b288e60408f01358f0161099a565b99506001600160401b0360608e01351115610b4257600080fd5b610b528e60608f01358f0161099a565b98506001600160401b0360808e01351115610b6c57600080fd5b610b7c8e60808f01358f0161099a565b97506001600160401b0360a08e01351115610b9657600080fd5b610ba68e60a08f01358f0161099a565b96506001600160401b0360c08e01351115610bc057600080fd5b610bd08e60c08f01358f01610a09565b95506001600160401b0360e08e01351115610bea57600080fd5b610bfa8e60e08f01358f01610a09565b94506001600160401b036101008e01351115610c1557600080fd5b610c268e6101008f01358f01610a09565b93506001600160401b036101208e01351115610c4157600080fd5b610c528e6101208f01358f0161099a565b92506001600160401b036101408e01351115610c6d57600080fd5b610c7e8e6101408f01358f0161099a565b91506001600160401b036101608e01351115610c9957600080fd5b610caa8e6101608f01358f0161099a565b90509295989b509295989b509295989b565b600060208284031215610cce57600080fd5b5035919050565b6000815180845260005b81811015610cfb57602081850181015186830182015201610cdf565b506000602082860101526020601f19601f83011685010191505092915050565b61010081526000610d3061010083018b610cd5565b8281036020840152610d42818b610cd5565b90508281036040840152610d56818a610cd5565b90508281036060840152610d6a8189610cd5565b90508281036080840152610d7e8188610cd5565b905082810360a0840152610d928187610cd5565b905082810360c0840152610da68186610cd5565b905082810360e0840152610dba8185610cd5565b9b9a5050505050505050505050565b60008060008060008060008060008060006101608c8e031215610deb57600080fd5b8b356001600160401b03811115610e0157600080fd5b610e0d8e828f0161099a565b9b505060208c01356001600160401b03811115610e2957600080fd5b610e358e828f0161099a565b9a505060408c01356001600160401b03811115610e5157600080fd5b610e5d8e828f0161099a565b99505060608c01356001600160401b03811115610e7957600080fd5b610e858e828f0161099a565b98505060808c01356001600160401b03811115610ea157600080fd5b610ead8e828f0161099a565b97505060a08c01356001600160401b03811115610ec957600080fd5b610ed58e828f01610a09565b96505060c08c01356001600160401b03811115610ef157600080fd5b610efd8e828f01610a09565b95505060e08c01356001600160401b03811115610f1957600080fd5b610f258e828f01610a09565b9450506101008c01356001600160401b03811115610f4257600080fd5b610f4e8e828f0161099a565b9350506101208c01356001600160401b03811115610f6b57600080fd5b610f778e828f0161099a565b9250506101408c01356001600160401b03811115610f9457600080fd5b610fa08e828f0161099a565b9150509295989b509295989b9093969950565b600181811c90821680610fc757607f821691505b602082108103610fe757634e487b7160e01b600052602260045260246000fd5b50919050565b601f82111561103757806000526020600020601f840160051c810160208510156110145750805b601f840160051c820191505b818110156110345760008155600101611020565b50505b505050565b81516001600160401b0381111561105557611055610954565b611069816110638454610fb3565b84610fed565b6020601f82116001811461109d57600083156110855750848201515b600019600385901b1c1916600184901b178455611034565b600084815260208120601f198516915b828110156110cd57878501518255602094850194600190920191016110ad565b50848210156110eb5786840151600019600387901b60f8161c191681555b50505050600190811b01905550565b634e487b7160e01b600052601160045260246000fd5b60008161111f5761111f6110fa565b506000190190565b600060018201611139576111396110fa565b506001019056fea2646970667358221220ad66a94b9dcd10fb064d8cf57765e14f13289143d56847c6c71c588fcdfbc1c464736f6c634300081b0033","opcodes":"PUSH1 0x80 PUSH1 0x40 MSTORE CALLVALUE DUP1 ISZERO PUSH1 0xF JUMPI PUSH1 0x0 DUP1 REVERT JUMPDEST POP PUSH2 0x1176 DUP1 PUSH2 0x1F PUSH1 0x0 CODECOPY PUSH1 0x0 RETURN INVALID PUSH1 0x80 PUSH1 0x40 MSTORE CALLVALUE DUP1 ISZERO PUSH2 0x10 JUMPI PUSH1 0x0 DUP1 REVERT JUMPDEST POP PUSH1 0x4 CALLDATASIZE LT PUSH2 0x57 JUMPI PUSH1 0x0 CALLDATALOAD PUSH1 0xE0 SHR DUP1 PUSH4 0x56F00AFF EQ PUSH2 0x5C JUMPI DUP1 PUSH4 0x67E57482 EQ PUSH2 0x71 JUMPI DUP1 PUSH4 0x93119A83 EQ PUSH2 0x84 JUMPI DUP1 PUSH4 0xA0303C41 EQ PUSH2 0xB4 JUMPI DUP1 PUSH4 0xB1E9B894 EQ PUSH2 0xCB JUMPI JUMPDEST PUSH1 0x0 DUP1 REVERT JUMPDEST PUSH2 0x6F PUSH2 0x6A CALLDATASIZE PUSH1 0x4 PUSH2 0xAAF JUMP JUMPDEST PUSH2 0xDE JUMP JUMPDEST STOP JUMPDEST PUSH2 0x6F PUSH2 0x7F CALLDATASIZE PUSH1 0x4 PUSH2 0xCBC JUMP JUMPDEST PUSH2 0x1B2 JUMP JUMPDEST PUSH2 0x97 PUSH2 0x92 CALLDATASIZE PUSH1 0x4 PUSH2 0xCBC JUMP JUMPDEST PUSH2 0x271 JUMP JUMPDEST PUSH1 0x40 MLOAD PUSH2 0xAB SWAP9 SWAP8 SWAP7 SWAP6 SWAP5 SWAP4 SWAP3 SWAP2 SWAP1 PUSH2 0xD1B JUMP JUMPDEST PUSH1 0x40 MLOAD DUP1 SWAP2 SUB SWAP1 RETURN JUMPDEST PUSH2 0xBD PUSH1 0x1 SLOAD DUP2 JUMP JUMPDEST PUSH1 0x40 MLOAD SWAP1 DUP2 MSTORE PUSH1 0x20 ADD PUSH2 0xAB JUMP JUMPDEST PUSH2 0x6F PUSH2 0xD9 CALLDATASIZE PUSH1 0x4 PUSH2 0xDC9 JUMP JUMPDEST PUSH2 0x6F1 JUMP JUMPDEST PUSH1 0x0 DUP13 DUP2 MSTORE PUSH1 0x20 DUP2 SWAP1 MSTORE PUSH1 0x40 SWAP1 KECCAK256 DUP1 PUSH2 0xF7 DUP14 DUP3 PUSH2 0x103C JUMP JUMPDEST POP PUSH1 0x1 DUP2 ADD PUSH2 0x106 DUP13 DUP3 PUSH2 0x103C JUMP JUMPDEST POP PUSH1 0x2 DUP2 ADD PUSH2 0x115 DUP12 DUP3 PUSH2 0x103C JUMP JUMPDEST POP PUSH1 0x3 DUP2 ADD PUSH2 0x124 DUP11 DUP3 PUSH2 0x103C JUMP JUMPDEST POP PUSH1 0x4 DUP2 ADD PUSH2 0x133 DUP10 DUP3 PUSH2 0x103C JUMP JUMPDEST POP DUP7 MLOAD PUSH2 0x149 SWAP1 PUSH1 0x5 DUP4 ADD SWAP1 PUSH1 0x20 DUP11 ADD SWAP1 PUSH2 0x875 JUMP JUMPDEST POP DUP6 MLOAD PUSH2 0x15F SWAP1 PUSH1 0x6 DUP4 ADD SWAP1 PUSH1 0x20 DUP10 ADD SWAP1 PUSH2 0x875 JUMP JUMPDEST POP DUP5 MLOAD PUSH2 0x175 SWAP1 PUSH1 0x7 DUP4 ADD SWAP1 PUSH1 0x20 DUP9 ADD SWAP1 PUSH2 0x875 JUMP JUMPDEST POP PUSH1 0x8 DUP2 ADD PUSH2 0x184 DUP6 DUP3 PUSH2 0x103C JUMP JUMPDEST POP PUSH1 0x9 DUP2 ADD PUSH2 0x193 DUP5 DUP3 PUSH2 0x103C JUMP JUMPDEST POP PUSH1 0xA DUP2 ADD PUSH2 0x1A2 DUP4 DUP3 PUSH2 0x103C JUMP JUMPDEST POP POP POP POP POP POP POP POP POP POP POP POP POP POP JUMP JUMPDEST PUSH1 0x0 DUP2 DUP2 MSTORE PUSH1 0x20 DUP2 SWAP1 MSTORE PUSH1 0x40 DUP2 KECCAK256 SWAP1 PUSH2 0x1CB DUP3 DUP3 PUSH2 0x8CB JUMP JUMPDEST PUSH2 0x1D9 PUSH1 0x1 DUP4 ADD PUSH1 0x0 PUSH2 0x8CB JUMP JUMPDEST PUSH2 0x1E7 PUSH1 0x2 DUP4 ADD PUSH1 0x0 PUSH2 0x8CB JUMP JUMPDEST PUSH2 0x1F5 PUSH1 0x3 DUP4 ADD PUSH1 0x0 PUSH2 0x8CB JUMP JUMPDEST PUSH2 0x203 PUSH1 0x4 DUP4 ADD PUSH1 0x0 PUSH2 0x8CB JUMP JUMPDEST PUSH2 0x211 PUSH1 0x5 DUP4 ADD PUSH1 0x0 PUSH2 0x908 JUMP JUMPDEST PUSH2 0x21F PUSH1 0x6 DUP4 ADD PUSH1 0x0 PUSH2 0x908 JUMP JUMPDEST PUSH2 0x22D PUSH1 0x7 DUP4 ADD PUSH1 0x0 PUSH2 0x908 JUMP JUMPDEST PUSH2 0x23B PUSH1 0x8 DUP4 ADD PUSH1 0x0 PUSH2 0x8CB JUMP JUMPDEST PUSH2 0x249 PUSH1 0x9 DUP4 ADD PUSH1 0x0 PUSH2 0x8CB JUMP JUMPDEST PUSH2 0x257 PUSH1 0xA DUP4 ADD PUSH1 0x0 PUSH2 0x8CB JUMP JUMPDEST POP POP PUSH1 0x1 DUP1 SLOAD SWAP1 PUSH1 0x0 PUSH2 0x269 DUP4 PUSH2 0x1110 JUMP JUMPDEST SWAP2 SWAP1 POP SSTORE POP POP JUMP JUMPDEST PUSH1 0x0 PUSH1 0x20 DUP2 SWAP1 MSTORE SWAP1 DUP2 MSTORE PUSH1 0x40 SWAP1 KECCAK256 DUP1 SLOAD DUP2 SWAP1 PUSH2 0x28C SWAP1 PUSH2 0xFB3 JUMP JUMPDEST DUP1 PUSH1 0x1F ADD PUSH1 0x20 DUP1 SWAP2 DIV MUL PUSH1 0x20 ADD PUSH1 0x40 MLOAD SWAP1 DUP2 ADD PUSH1 0x40 MSTORE DUP1 SWAP3 SWAP2 SWAP1 DUP2 DUP2 MSTORE PUSH1 0x20 ADD DUP3 DUP1 SLOAD PUSH2 0x2B8 SWAP1 PUSH2 0xFB3 JUMP JUMPDEST DUP1 ISZERO PUSH2 0x305 JUMPI DUP1 PUSH1 0x1F LT PUSH2 0x2DA JUMPI PUSH2 0x100 DUP1 DUP4 SLOAD DIV MUL DUP4 MSTORE SWAP2 PUSH1 0x20 ADD SWAP2 PUSH2 0x305 JUMP JUMPDEST DUP3 ADD SWAP2 SWAP1 PUSH1 0x0 MSTORE PUSH1 0x20 PUSH1 0x0 KECCAK256 SWAP1 JUMPDEST DUP2 SLOAD DUP2 MSTORE SWAP1 PUSH1 0x1 ADD SWAP1 PUSH1 0x20 ADD DUP1 DUP4 GT PUSH2 0x2E8 JUMPI DUP3 SWAP1 SUB PUSH1 0x1F AND DUP3 ADD SWAP2 JUMPDEST POP POP POP POP POP SWAP1 DUP1 PUSH1 0x1 ADD DUP1 SLOAD PUSH2 0x31A SWAP1 PUSH2 0xFB3 JUMP JUMPDEST DUP1 PUSH1 0x1F ADD PUSH1 0x20 DUP1 SWAP2 DIV MUL PUSH1 0x20 ADD PUSH1 0x40 MLOAD SWAP1 DUP2 ADD PUSH1 0x40 MSTORE DUP1 SWAP3 SWAP2 SWAP1 DUP2 DUP2 MSTORE PUSH1 0x20 ADD DUP3 DUP1 SLOAD PUSH2 0x346 SWAP1 PUSH2 0xFB3 JUMP JUMPDEST DUP1 ISZERO PUSH2 0x393 JUMPI DUP1 PUSH1 0x1F LT PUSH2 0x368 JUMPI PUSH2 0x100 DUP1 DUP4 SLOAD DIV MUL DUP4 MSTORE SWAP2 PUSH1 0x20 ADD SWAP2 PUSH2 0x393 JUMP JUMPDEST DUP3 ADD SWAP2 SWAP1 PUSH1 0x0 MSTORE PUSH1 0x20 PUSH1 0x0 KECCAK256 SWAP1 JUMPDEST DUP2 SLOAD DUP2 MSTORE SWAP1 PUSH1 0x1 ADD SWAP1 PUSH1 0x20 ADD DUP1 DUP4 GT PUSH2 0x376 JUMPI DUP3 SWAP1 SUB PUSH1 0x1F AND DUP3 ADD SWAP2 JUMPDEST POP POP POP POP POP SWAP1 DUP1 PUSH1 0x2 ADD DUP1 SLOAD PUSH2 0x3A8 SWAP1 PUSH2 0xFB3 JUMP JUMPDEST DUP1 PUSH1 0x1F ADD PUSH1 0x20 DUP1 SWAP2 DIV MUL PUSH1 0x20 ADD PUSH1 0x40 MLOAD SWAP1 DUP2 ADD PUSH1 0x40 MSTORE DUP1 SWAP3 SWAP2 SWAP1 DUP2 DUP2 MSTORE PUSH1 0x20 ADD DUP3 DUP1 SLOAD PUSH2 0x3D4 SWAP1 PUSH2 0xFB3 JUMP JUMPDEST DUP1 ISZERO PUSH2 0x421 JUMPI DUP1 PUSH1 0x1F LT PUSH2 0x3F6 JUMPI PUSH2 0x100 DUP1 DUP4 SLOAD DIV MUL DUP4 MSTORE SWAP2 PUSH1 0x20 ADD SWAP2 PUSH2 0x421 JUMP JUMPDEST DUP3 ADD SWAP2 SWAP1 PUSH1 0x0 MSTORE PUSH1 0x20 PUSH1 0x0 KECCAK256 SWAP1 JUMPDEST DUP2 SLOAD DUP2 MSTORE SWAP1 PUSH1 0x1 ADD SWAP1 PUSH1 0x20 ADD DUP1 DUP4 GT PUSH2 0x404 JUMPI DUP3 SWAP1 SUB PUSH1 0x1F AND DUP3 ADD SWAP2 JUMPDEST POP POP POP POP POP SWAP1 DUP1 PUSH1 0x3 ADD DUP1 SLOAD PUSH2 0x436 SWAP1 PUSH2 0xFB3 JUMP JUMPDEST DUP1 PUSH1 0x1F ADD PUSH1 0x20 DUP1 SWAP2 DIV MUL PUSH1 0x20 ADD PUSH1 0x40 MLOAD SWAP1 DUP2 ADD PUSH1 0x40 MSTORE DUP1 SWAP3 SWAP2 SWAP1 DUP2 DUP2 MSTORE PUSH1 0x20 ADD DUP3 DUP1 SLOAD PUSH2 0x462 SWAP1 PUSH2 0xFB3 JUMP JUMPDEST DUP1 ISZERO PUSH2 0x4AF JUMPI DUP1 PUSH1 0x1F LT PUSH2 0x484 JUMPI PUSH2 0x100 DUP1 DUP4 SLOAD DIV MUL DUP4 MSTORE SWAP2 PUSH1 0x20 ADD SWAP2 PUSH2 0x4AF JUMP JUMPDEST DUP3 ADD SWAP2 SWAP1 PUSH1 0x0 MSTORE PUSH1 0x20 PUSH1 0x0 KECCAK256 SWAP1 JUMPDEST DUP2 SLOAD DUP2 MSTORE SWAP1 PUSH1 0x1 ADD SWAP1 PUSH1 0x20 ADD DUP1 DUP4 GT PUSH2 0x492 JUMPI DUP3 SWAP1 SUB PUSH1 0x1F AND DUP3 ADD SWAP2 JUMPDEST POP POP POP POP POP SWAP1 DUP1 PUSH1 0x4 ADD DUP1 SLOAD PUSH2 0x4C4 SWAP1 PUSH2 0xFB3 JUMP JUMPDEST DUP1 PUSH1 0x1F ADD PUSH1 0x20 DUP1 SWAP2 DIV MUL PUSH1 0x20 ADD PUSH1 0x40 MLOAD SWAP1 DUP2 ADD PUSH1 0x40 MSTORE DUP1 SWAP3 SWAP2 SWAP1 DUP2 DUP2 MSTORE PUSH1 0x20 ADD DUP3 DUP1 SLOAD PUSH2 0x4F0 SWAP1 PUSH2 0xFB3 JUMP JUMPDEST DUP1 ISZERO PUSH2 0x53D JUMPI DUP1 PUSH1 0x1F LT PUSH2 0x512 JUMPI PUSH2 0x100 DUP1 DUP4 SLOAD DIV MUL DUP4 MSTORE SWAP2 PUSH1 0x20 ADD SWAP2 PUSH2 0x53D JUMP JUMPDEST DUP3 ADD SWAP2 SWAP1 PUSH1 0x0 MSTORE PUSH1 0x20 PUSH1 0x0 KECCAK256 SWAP1 JUMPDEST DUP2 SLOAD DUP2 MSTORE SWAP1 PUSH1 0x1 ADD SWAP1 PUSH1 0x20 ADD DUP1 DUP4 GT PUSH2 0x520 JUMPI DUP3 SWAP1 SUB PUSH1 0x1F AND DUP3 ADD SWAP2 JUMPDEST POP POP POP POP POP SWAP1 DUP1 PUSH1 0x8 ADD DUP1 SLOAD PUSH2 0x552 SWAP1 PUSH2 0xFB3 JUMP JUMPDEST DUP1 PUSH1 0x1F ADD PUSH1 0x20 DUP1 SWAP2 DIV MUL PUSH1 0x20 ADD PUSH1 0x40 MLOAD SWAP1 DUP2 ADD PUSH1 0x40 MSTORE DUP1 SWAP3 SWAP2 SWAP1 DUP2 DUP2 MSTORE PUSH1 0x20 ADD DUP3 DUP1 SLOAD PUSH2 0x57E SWAP1 PUSH2 0xFB3 JUMP JUMPDEST DUP1 ISZERO PUSH2 0x5CB JUMPI DUP1 PUSH1 0x1F LT PUSH2 0x5A0 JUMPI PUSH2 0x100 DUP1 DUP4 SLOAD DIV MUL DUP4 MSTORE SWAP2 PUSH1 0x20 ADD SWAP2 PUSH2 0x5CB JUMP JUMPDEST DUP3 ADD SWAP2 SWAP1 PUSH1 0x0 MSTORE PUSH1 0x20 PUSH1 0x0 KECCAK256 SWAP1 JUMPDEST DUP2 SLOAD DUP2 MSTORE SWAP1 PUSH1 0x1 ADD SWAP1 PUSH1 0x20 ADD DUP1 DUP4 GT PUSH2 0x5AE JUMPI DUP3 SWAP1 SUB PUSH1 0x1F AND DUP3 ADD SWAP2 JUMPDEST POP POP POP POP POP SWAP1 DUP1 PUSH1 0x9 ADD DUP1 SLOAD PUSH2 0x5E0 SWAP1 PUSH2 0xFB3 JUMP JUMPDEST DUP1 PUSH1 0x1F ADD PUSH1 0x20 DUP1 SWAP2 DIV MUL PUSH1 0x20 ADD PUSH1 0x40 MLOAD SWAP1 DUP2 ADD PUSH1 0x40 MSTORE DUP1 SWAP3 SWAP2 SWAP1 DUP2 DUP2 MSTORE PUSH1 0x20 ADD DUP3 DUP1 SLOAD PUSH2 0x60C SWAP1 PUSH2 0xFB3 JUMP JUMPDEST DUP1 ISZERO PUSH2 0x659 JUMPI DUP1 PUSH1 0x1F LT PUSH2 0x62E JUMPI PUSH2 0x100 DUP1 DUP4 SLOAD DIV MUL DUP4 MSTORE SWAP2 PUSH1 0x20 ADD SWAP2 PUSH2 0x659 JUMP JUMPDEST DUP3 ADD SWAP2 SWAP1 PUSH1 0x0 MSTORE PUSH1 0x20 PUSH1 0x0 KECCAK256 SWAP1 JUMPDEST DUP2 SLOAD DUP2 MSTORE SWAP1 PUSH1 0x1 ADD SWAP1 PUSH1 0x20 ADD DUP1 DUP4 GT PUSH2 0x63C JUMPI DUP3 SWAP1 SUB PUSH1 0x1F AND DUP3 ADD SWAP2 JUMPDEST POP POP POP POP POP SWAP1 DUP1 PUSH1 0xA ADD DUP1 SLOAD PUSH2 0x66E SWAP1 PUSH2 0xFB3 JUMP JUMPDEST DUP1 PUSH1 0x1F ADD PUSH1 0x20 DUP1 SWAP2 DIV MUL PUSH1 0x20 ADD PUSH1 0x40 MLOAD SWAP1 DUP2 ADD PUSH1 0x40 MSTORE DUP1 SWAP3 SWAP2 SWAP1 DUP2 DUP2 MSTORE PUSH1 0x20 ADD DUP3 DUP1 SLOAD PUSH2 0x69A SWAP1 PUSH2 0xFB3 JUMP JUMPDEST DUP1 ISZERO PUSH2 0x6E7 JUMPI DUP1 PUSH1 0x1F LT PUSH2 0x6BC JUMPI PUSH2 0x100 DUP1 DUP4 SLOAD DIV MUL DUP4 MSTORE SWAP2 PUSH1 0x20 ADD SWAP2 PUSH2 0x6E7 JUMP JUMPDEST DUP3 ADD SWAP2 SWAP1 PUSH1 0x0 MSTORE PUSH1 0x20 PUSH1 0x0 KECCAK256 SWAP1 JUMPDEST DUP2 SLOAD DUP2 MSTORE SWAP1 PUSH1 0x1 ADD SWAP1 PUSH1 0x20 ADD DUP1 DUP4 GT PUSH2 0x6CA JUMPI DUP3 SWAP1 SUB PUSH1 0x1F AND DUP3 ADD SWAP2 JUMPDEST POP POP POP POP POP SWAP1 POP DUP9 JUMP JUMPDEST PUSH1 0x40 MLOAD DUP1 PUSH2 0x160 ADD PUSH1 0x40 MSTORE DUP1 DUP13 DUP2 MSTORE PUSH1 0x20 ADD DUP12 DUP2 MSTORE PUSH1 0x20 ADD DUP11 DUP2 MSTORE PUSH1 0x20 ADD DUP10 DUP2 MSTORE PUSH1 0x20 ADD DUP9 DUP2 MSTORE PUSH1 0x20 ADD DUP8 DUP2 MSTORE PUSH1 0x20 ADD DUP7 DUP2 MSTORE PUSH1 0x20 ADD DUP6 DUP2 MSTORE PUSH1 0x20 ADD DUP5 DUP2 MSTORE PUSH1 0x20 ADD DUP4 DUP2 MSTORE PUSH1 0x20 ADD DUP3 DUP2 MSTORE POP PUSH1 0x0 DUP1 PUSH1 0x1 SLOAD DUP2 MSTORE PUSH1 0x20 ADD SWAP1 DUP2 MSTORE PUSH1 0x20 ADD PUSH1 0x0 KECCAK256 PUSH1 0x0 DUP3 ADD MLOAD DUP2 PUSH1 0x0 ADD SWAP1 DUP2 PUSH2 0x766 SWAP2 SWAP1 PUSH2 0x103C JUMP JUMPDEST POP PUSH1 0x20 DUP3 ADD MLOAD PUSH1 0x1 DUP3 ADD SWAP1 PUSH2 0x77B SWAP1 DUP3 PUSH2 0x103C JUMP JUMPDEST POP PUSH1 0x40 DUP3 ADD MLOAD PUSH1 0x2 DUP3 ADD SWAP1 PUSH2 0x790 SWAP1 DUP3 PUSH2 0x103C JUMP JUMPDEST POP PUSH1 0x60 DUP3 ADD MLOAD PUSH1 0x3 DUP3 ADD SWAP1 PUSH2 0x7A5 SWAP1 DUP3 PUSH2 0x103C JUMP JUMPDEST POP PUSH1 0x80 DUP3 ADD MLOAD PUSH1 0x4 DUP3 ADD SWAP1 PUSH2 0x7BA SWAP1 DUP3 PUSH2 0x103C JUMP JUMPDEST POP PUSH1 0xA0 DUP3 ADD MLOAD DUP1 MLOAD PUSH2 0x7D6 SWAP2 PUSH1 0x5 DUP5 ADD SWAP2 PUSH1 0x20 SWAP1 SWAP2 ADD SWAP1 PUSH2 0x875 JUMP JUMPDEST POP PUSH1 0xC0 DUP3 ADD MLOAD DUP1 MLOAD PUSH2 0x7F2 SWAP2 PUSH1 0x6 DUP5 ADD SWAP2 PUSH1 0x20 SWAP1 SWAP2 ADD SWAP1 PUSH2 0x875 JUMP JUMPDEST POP PUSH1 0xE0 DUP3 ADD MLOAD DUP1 MLOAD PUSH2 0x80E SWAP2 PUSH1 0x7 DUP5 ADD SWAP2 PUSH1 0x20 SWAP1 SWAP2 ADD SWAP1 PUSH2 0x875 JUMP JUMPDEST POP PUSH2 0x100 DUP3 ADD MLOAD PUSH1 0x8 DUP3 ADD SWAP1 PUSH2 0x824 SWAP1 DUP3 PUSH2 0x103C JUMP JUMPDEST POP PUSH2 0x120 DUP3 ADD MLOAD PUSH1 0x9 DUP3 ADD SWAP1 PUSH2 0x83A SWAP1 DUP3 PUSH2 0x103C JUMP JUMPDEST POP PUSH2 0x140 DUP3 ADD MLOAD PUSH1 0xA DUP3 ADD SWAP1 PUSH2 0x850 SWAP1 DUP3 PUSH2 0x103C JUMP JUMPDEST POP POP PUSH1 0x1 DUP1 SLOAD SWAP2 POP PUSH1 0x0 PUSH2 0x863 DUP4 PUSH2 0x1127 JUMP JUMPDEST SWAP2 SWAP1 POP SSTORE POP POP POP POP POP POP POP POP POP POP POP POP JUMP JUMPDEST DUP3 DUP1 SLOAD DUP3 DUP3 SSTORE SWAP1 PUSH1 0x0 MSTORE PUSH1 0x20 PUSH1 0x0 KECCAK256 SWAP1 DUP2 ADD SWAP3 DUP3 ISZERO PUSH2 0x8BB JUMPI SWAP2 PUSH1 0x20 MUL DUP3 ADD JUMPDEST DUP3 DUP2 GT ISZERO PUSH2 0x8BB JUMPI DUP3 MLOAD DUP3 SWAP1 PUSH2 0x8AB SWAP1 DUP3 PUSH2 0x103C JUMP JUMPDEST POP SWAP2 PUSH1 0x20 ADD SWAP2 SWAP1 PUSH1 0x1 ADD SWAP1 PUSH2 0x895 JUMP JUMPDEST POP PUSH2 0x8C7 SWAP3 SWAP2 POP PUSH2 0x922 JUMP JUMPDEST POP SWAP1 JUMP JUMPDEST POP DUP1 SLOAD PUSH2 0x8D7 SWAP1 PUSH2 0xFB3 JUMP JUMPDEST PUSH1 0x0 DUP3 SSTORE DUP1 PUSH1 0x1F LT PUSH2 0x8E7 JUMPI POP POP JUMP JUMPDEST PUSH1 0x1F ADD PUSH1 0x20 SWAP1 DIV SWAP1 PUSH1 0x0 MSTORE PUSH1 0x20 PUSH1 0x0 KECCAK256 SWAP1 DUP2 ADD SWAP1 PUSH2 0x905 SWAP2 SWAP1 PUSH2 0x93F JUMP JUMPDEST POP JUMP JUMPDEST POP DUP1 SLOAD PUSH1 0x0 DUP3 SSTORE SWAP1 PUSH1 0x0 MSTORE PUSH1 0x20 PUSH1 0x0 KECCAK256 SWAP1 DUP2 ADD SWAP1 PUSH2 0x905 SWAP2 SWAP1 JUMPDEST DUP1 DUP3 GT ISZERO PUSH2 0x8C7 JUMPI PUSH1 0x0 PUSH2 0x936 DUP3 DUP3 PUSH2 0x8CB JUMP JUMPDEST POP PUSH1 0x1 ADD PUSH2 0x922 JUMP JUMPDEST JUMPDEST DUP1 DUP3 GT ISZERO PUSH2 0x8C7 JUMPI PUSH1 0x0 DUP2 SSTORE PUSH1 0x1 ADD PUSH2 0x940 JUMP JUMPDEST PUSH4 0x4E487B71 PUSH1 0xE0 SHL PUSH1 0x0 MSTORE PUSH1 0x41 PUSH1 0x4 MSTORE PUSH1 0x24 PUSH1 0x0 REVERT JUMPDEST PUSH1 0x40 MLOAD PUSH1 0x1F DUP3 ADD PUSH1 0x1F NOT AND DUP2 ADD PUSH1 0x1 PUSH1 0x1 PUSH1 0x40 SHL SUB DUP2 GT DUP3 DUP3 LT OR ISZERO PUSH2 0x992 JUMPI PUSH2 0x992 PUSH2 0x954 JUMP JUMPDEST PUSH1 0x40 MSTORE SWAP2 SWAP1 POP JUMP JUMPDEST PUSH1 0x0 DUP3 PUSH1 0x1F DUP4 ADD SLT PUSH2 0x9AB JUMPI PUSH1 0x0 DUP1 REVERT JUMPDEST DUP2 CALLDATALOAD PUSH1 0x1 PUSH1 0x1 PUSH1 0x40 SHL SUB DUP2 GT ISZERO PUSH2 0x9C4 JUMPI PUSH2 0x9C4 PUSH2 0x954 JUMP JUMPDEST PUSH2 0x9D7 PUSH1 0x1F DUP3 ADD PUSH1 0x1F NOT AND PUSH1 0x20 ADD PUSH2 0x96A JUMP JUMPDEST DUP2 DUP2 MSTORE DUP5 PUSH1 0x20 DUP4 DUP7 ADD ADD GT ISZERO PUSH2 0x9EC JUMPI PUSH1 0x0 DUP1 REVERT JUMPDEST DUP2 PUSH1 0x20 DUP6 ADD PUSH1 0x20 DUP4 ADD CALLDATACOPY PUSH1 0x0 SWAP2 DUP2 ADD PUSH1 0x20 ADD SWAP2 SWAP1 SWAP2 MSTORE SWAP4 SWAP3 POP POP POP JUMP JUMPDEST PUSH1 0x0 DUP3 PUSH1 0x1F DUP4 ADD SLT PUSH2 0xA1A JUMPI PUSH1 0x0 DUP1 REVERT JUMPDEST DUP2 CALLDATALOAD PUSH1 0x1 PUSH1 0x1 PUSH1 0x40 SHL SUB DUP2 GT ISZERO PUSH2 0xA33 JUMPI PUSH2 0xA33 PUSH2 0x954 JUMP JUMPDEST DUP1 PUSH1 0x5 SHL PUSH2 0xA43 PUSH1 0x20 DUP3 ADD PUSH2 0x96A JUMP JUMPDEST SWAP2 DUP3 MSTORE PUSH1 0x20 DUP2 DUP6 ADD DUP2 ADD SWAP3 SWAP1 DUP2 ADD SWAP1 DUP7 DUP5 GT ISZERO PUSH2 0xA5F JUMPI PUSH1 0x0 DUP1 REVERT JUMPDEST PUSH1 0x20 DUP7 ADD SWAP3 POP JUMPDEST DUP4 DUP4 LT ISZERO PUSH2 0xAA5 JUMPI DUP3 CALLDATALOAD PUSH1 0x1 PUSH1 0x1 PUSH1 0x40 SHL SUB DUP2 GT ISZERO PUSH2 0xA84 JUMPI PUSH1 0x0 DUP1 REVERT JUMPDEST PUSH2 0xA93 DUP9 PUSH1 0x20 DUP4 DUP11 ADD ADD PUSH2 0x99A JUMP JUMPDEST DUP4 MSTORE POP PUSH1 0x20 SWAP3 DUP4 ADD SWAP3 SWAP1 SWAP2 ADD SWAP1 PUSH2 0xA66 JUMP JUMPDEST SWAP7 SWAP6 POP POP POP POP POP POP JUMP JUMPDEST PUSH1 0x0 DUP1 PUSH1 0x0 DUP1 PUSH1 0x0 DUP1 PUSH1 0x0 DUP1 PUSH1 0x0 DUP1 PUSH1 0x0 DUP1 PUSH2 0x180 DUP14 DUP16 SUB SLT ISZERO PUSH2 0xAD2 JUMPI PUSH1 0x0 DUP1 REVERT JUMPDEST DUP13 CALLDATALOAD SWAP12 POP PUSH1 0x1 PUSH1 0x1 PUSH1 0x40 SHL SUB PUSH1 0x20 DUP15 ADD CALLDATALOAD GT ISZERO PUSH2 0xAEE JUMPI PUSH1 0x0 DUP1 REVERT JUMPDEST PUSH2 0xAFE DUP15 PUSH1 0x20 DUP16 ADD CALLDATALOAD DUP16 ADD PUSH2 0x99A JUMP JUMPDEST SWAP11 POP PUSH1 0x1 PUSH1 0x1 PUSH1 0x40 SHL SUB PUSH1 0x40 DUP15 ADD CALLDATALOAD GT ISZERO PUSH2 0xB18 JUMPI PUSH1 0x0 DUP1 REVERT JUMPDEST PUSH2 0xB28 DUP15 PUSH1 0x40 DUP16 ADD CALLDATALOAD DUP16 ADD PUSH2 0x99A JUMP JUMPDEST SWAP10 POP PUSH1 0x1 PUSH1 0x1 PUSH1 0x40 SHL SUB PUSH1 0x60 DUP15 ADD CALLDATALOAD GT ISZERO PUSH2 0xB42 JUMPI PUSH1 0x0 DUP1 REVERT JUMPDEST PUSH2 0xB52 DUP15 PUSH1 0x60 DUP16 ADD CALLDATALOAD DUP16 ADD PUSH2 0x99A JUMP JUMPDEST SWAP9 POP PUSH1 0x1 PUSH1 0x1 PUSH1 0x40 SHL SUB PUSH1 0x80 DUP15 ADD CALLDATALOAD GT ISZERO PUSH2 0xB6C JUMPI PUSH1 0x0 DUP1 REVERT JUMPDEST PUSH2 0xB7C DUP15 PUSH1 0x80 DUP16 ADD CALLDATALOAD DUP16 ADD PUSH2 0x99A JUMP JUMPDEST SWAP8 POP PUSH1 0x1 PUSH1 0x1 PUSH1 0x40 SHL SUB PUSH1 0xA0 DUP15 ADD CALLDATALOAD GT ISZERO PUSH2 0xB96 JUMPI PUSH1 0x0 DUP1 REVERT JUMPDEST PUSH2 0xBA6 DUP15 PUSH1 0xA0 DUP16 ADD CALLDATALOAD DUP16 ADD PUSH2 0x99A JUMP JUMPDEST SWAP7 POP PUSH1 0x1 PUSH1 0x1 PUSH1 0x40 SHL SUB PUSH1 0xC0 DUP15 ADD CALLDATALOAD GT ISZERO PUSH2 0xBC0 JUMPI PUSH1 0x0 DUP1 REVERT JUMPDEST PUSH2 0xBD0 DUP15 PUSH1 0xC0 DUP16 ADD CALLDATALOAD DUP16 ADD PUSH2 0xA09 JUMP JUMPDEST SWAP6 POP PUSH1 0x1 PUSH1 0x1 PUSH1 0x40 SHL SUB PUSH1 0xE0 DUP15 ADD CALLDATALOAD GT ISZERO PUSH2 0xBEA JUMPI PUSH1 0x0 DUP1 REVERT JUMPDEST PUSH2 0xBFA DUP15 PUSH1 0xE0 DUP16 ADD CALLDATALOAD DUP16 ADD PUSH2 0xA09 JUMP JUMPDEST SWAP5 POP PUSH1 0x1 PUSH1 0x1 PUSH1 0x40 SHL SUB PUSH2 0x100 DUP15 ADD CALLDATALOAD GT ISZERO PUSH2 0xC15 JUMPI PUSH1 0x0 DUP1 REVERT JUMPDEST PUSH2 0xC26 DUP15 PUSH2 0x100 DUP16 ADD CALLDATALOAD DUP16 ADD PUSH2 0xA09 JUMP JUMPDEST SWAP4 POP PUSH1 0x1 PUSH1 0x1 PUSH1 0x40 SHL SUB PUSH2 0x120 DUP15 ADD CALLDATALOAD GT ISZERO PUSH2 0xC41 JUMPI PUSH1 0x0 DUP1 REVERT JUMPDEST PUSH2 0xC52 DUP15 PUSH2 0x120 DUP16 ADD CALLDATALOAD DUP16 ADD PUSH2 0x99A JUMP JUMPDEST SWAP3 POP PUSH1 0x1 PUSH1 0x1 PUSH1 0x40 SHL SUB PUSH2 0x140 DUP15 ADD CALLDATALOAD GT ISZERO PUSH2 0xC6D JUMPI PUSH1 0x0 DUP1 REVERT JUMPDEST PUSH2 0xC7E DUP15 PUSH2 0x140 DUP16 ADD CALLDATALOAD DUP16 ADD PUSH2 0x99A JUMP JUMPDEST SWAP2 POP PUSH1 0x1 PUSH1 0x1 PUSH1 0x40 SHL SUB PUSH2 0x160 DUP15 ADD CALLDATALOAD GT ISZERO PUSH2 0xC99 JUMPI PUSH1 0x0 DUP1 REVERT JUMPDEST PUSH2 0xCAA DUP15 PUSH2 0x160 DUP16 ADD CALLDATALOAD DUP16 ADD PUSH2 0x99A JUMP JUMPDEST SWAP1 POP SWAP3 SWAP6 SWAP9 SWAP12 POP SWAP3 SWAP6 SWAP9 SWAP12 POP SWAP3 SWAP6 SWAP9 SWAP12 JUMP JUMPDEST PUSH1 0x0 PUSH1 0x20 DUP3 DUP5 SUB SLT ISZERO PUSH2 0xCCE JUMPI PUSH1 0x0 DUP1 REVERT JUMPDEST POP CALLDATALOAD SWAP2 SWAP1 POP JUMP JUMPDEST PUSH1 0x0 DUP2 MLOAD DUP1 DUP5 MSTORE PUSH1 0x0 JUMPDEST DUP2 DUP2 LT ISZERO PUSH2 0xCFB JUMPI PUSH1 0x20 DUP2 DUP6 ADD DUP2 ADD MLOAD DUP7 DUP4 ADD DUP3 ADD MSTORE ADD PUSH2 0xCDF JUMP JUMPDEST POP PUSH1 0x0 PUSH1 0x20 DUP3 DUP7 ADD ADD MSTORE PUSH1 0x20 PUSH1 0x1F NOT PUSH1 0x1F DUP4 ADD AND DUP6 ADD ADD SWAP2 POP POP SWAP3 SWAP2 POP POP JUMP JUMPDEST PUSH2 0x100 DUP2 MSTORE PUSH1 0x0 PUSH2 0xD30 PUSH2 0x100 DUP4 ADD DUP12 PUSH2 0xCD5 JUMP JUMPDEST DUP3 DUP2 SUB PUSH1 0x20 DUP5 ADD MSTORE PUSH2 0xD42 DUP2 DUP12 PUSH2 0xCD5 JUMP JUMPDEST SWAP1 POP DUP3 DUP2 SUB PUSH1 0x40 DUP5 ADD MSTORE PUSH2 0xD56 DUP2 DUP11 PUSH2 0xCD5 JUMP JUMPDEST SWAP1 POP DUP3 DUP2 SUB PUSH1 0x60 DUP5 ADD MSTORE PUSH2 0xD6A DUP2 DUP10 PUSH2 0xCD5 JUMP JUMPDEST SWAP1 POP DUP3 DUP2 SUB PUSH1 0x80 DUP5 ADD MSTORE PUSH2 0xD7E DUP2 DUP9 PUSH2 0xCD5 JUMP JUMPDEST SWAP1 POP DUP3 DUP2 SUB PUSH1 0xA0 DUP5 ADD MSTORE PUSH2 0xD92 DUP2 DUP8 PUSH2 0xCD5 JUMP JUMPDEST SWAP1 POP DUP3 DUP2 SUB PUSH1 0xC0 DUP5 ADD MSTORE PUSH2 0xDA6 DUP2 DUP7 PUSH2 0xCD5 JUMP JUMPDEST SWAP1 POP DUP3 DUP2 SUB PUSH1 0xE0 DUP5 ADD MSTORE PUSH2 0xDBA DUP2 DUP6 PUSH2 0xCD5 JUMP JUMPDEST SWAP12 SWAP11 POP POP POP POP POP POP POP POP POP POP POP JUMP JUMPDEST PUSH1 0x0 DUP1 PUSH1 0x0 DUP1 PUSH1 0x0 DUP1 PUSH1 0x0 DUP1 PUSH1 0x0 DUP1 PUSH1 0x0 PUSH2 0x160 DUP13 DUP15 SUB SLT ISZERO PUSH2 0xDEB JUMPI PUSH1 0x0 DUP1 REVERT JUMPDEST DUP12 CALLDATALOAD PUSH1 0x1 PUSH1 0x1 PUSH1 0x40 SHL SUB DUP2 GT ISZERO PUSH2 0xE01 JUMPI PUSH1 0x0 DUP1 REVERT JUMPDEST PUSH2 0xE0D DUP15 DUP3 DUP16 ADD PUSH2 0x99A JUMP JUMPDEST SWAP12 POP POP PUSH1 0x20 DUP13 ADD CALLDATALOAD PUSH1 0x1 PUSH1 0x1 PUSH1 0x40 SHL SUB DUP2 GT ISZERO PUSH2 0xE29 JUMPI PUSH1 0x0 DUP1 REVERT JUMPDEST PUSH2 0xE35 DUP15 DUP3 DUP16 ADD PUSH2 0x99A JUMP JUMPDEST SWAP11 POP POP PUSH1 0x40 DUP13 ADD CALLDATALOAD PUSH1 0x1 PUSH1 0x1 PUSH1 0x40 SHL SUB DUP2 GT ISZERO PUSH2 0xE51 JUMPI PUSH1 0x0 DUP1 REVERT JUMPDEST PUSH2 0xE5D DUP15 DUP3 DUP16 ADD PUSH2 0x99A JUMP JUMPDEST SWAP10 POP POP PUSH1 0x60 DUP13 ADD CALLDATALOAD PUSH1 0x1 PUSH1 0x1 PUSH1 0x40 SHL SUB DUP2 GT ISZERO PUSH2 0xE79 JUMPI PUSH1 0x0 DUP1 REVERT JUMPDEST PUSH2 0xE85 DUP15 DUP3 DUP16 ADD PUSH2 0x99A JUMP JUMPDEST SWAP9 POP POP PUSH1 0x80 DUP13 ADD CALLDATALOAD PUSH1 0x1 PUSH1 0x1 PUSH1 0x40 SHL SUB DUP2 GT ISZERO PUSH2 0xEA1 JUMPI PUSH1 0x0 DUP1 REVERT JUMPDEST PUSH2 0xEAD DUP15 DUP3 DUP16 ADD PUSH2 0x99A JUMP JUMPDEST SWAP8 POP POP PUSH1 0xA0 DUP13 ADD CALLDATALOAD PUSH1 0x1 PUSH1 0x1 PUSH1 0x40 SHL SUB DUP2 GT ISZERO PUSH2 0xEC9 JUMPI PUSH1 0x0 DUP1 REVERT JUMPDEST PUSH2 0xED5 DUP15 DUP3 DUP16 ADD PUSH2 0xA09 JUMP JUMPDEST SWAP7 POP POP PUSH1 0xC0 DUP13 ADD CALLDATALOAD PUSH1 0x1 PUSH1 0x1 PUSH1 0x40 SHL SUB DUP2 GT ISZERO PUSH2 0xEF1 JUMPI PUSH1 0x0 DUP1 REVERT JUMPDEST PUSH2 0xEFD DUP15 DUP3 DUP16 ADD PUSH2 0xA09 JUMP JUMPDEST SWAP6 POP POP PUSH1 0xE0 DUP13 ADD CALLDATALOAD PUSH1 0x1 PUSH1 0x1 PUSH1 0x40 SHL SUB DUP2 GT ISZERO PUSH2 0xF19 JUMPI PUSH1 0x0 DUP1 REVERT JUMPDEST PUSH2 0xF25 DUP15 DUP3 DUP16 ADD PUSH2 0xA09 JUMP JUMPDEST SWAP5 POP POP PUSH2 0x100 DUP13 ADD CALLDATALOAD PUSH1 0x1 PUSH1 0x1 PUSH1 0x40 SHL SUB DUP2 GT ISZERO PUSH2 0xF42 JUMPI PUSH1 0x0 DUP1 REVERT JUMPDEST PUSH2 0xF4E DUP15 DUP3 DUP16 ADD PUSH2 0x99A JUMP JUMPDEST SWAP4 POP POP PUSH2 0x120 DUP13 ADD CALLDATALOAD PUSH1 0x1 PUSH1 0x1 PUSH1 0x40 SHL SUB DUP2 GT ISZERO PUSH2 0xF6B JUMPI PUSH1 0x0 DUP1 REVERT JUMPDEST PUSH2 0xF77 DUP15 DUP3 DUP16 ADD PUSH2 0x99A JUMP JUMPDEST SWAP3 POP POP PUSH2 0x140 DUP13 ADD CALLDATALOAD PUSH1 0x1 PUSH1 0x1 PUSH1 0x40 SHL SUB DUP2 GT ISZERO PUSH2 0xF94 JUMPI PUSH1 0x0 DUP1 REVERT JUMPDEST PUSH2 0xFA0 DUP15 DUP3 DUP16 ADD PUSH2 0x99A JUMP JUMPDEST SWAP2 POP POP SWAP3 SWAP6 SWAP9 SWAP12 POP SWAP3 SWAP6 SWAP9 SWAP12 SWAP1 SWAP4 SWAP7 SWAP10 POP JUMP JUMPDEST PUSH1 0x1 DUP2 DUP2 SHR SWAP1 DUP3 AND DUP1 PUSH2 0xFC7 JUMPI PUSH1 0x7F DUP3 AND SWAP2 POP JUMPDEST PUSH1 0x20 DUP3 LT DUP2 SUB PUSH2 0xFE7 JUMPI PUSH4 0x4E487B71 PUSH1 0xE0 SHL PUSH1 0x0 MSTORE PUSH1 0x22 PUSH1 0x4 MSTORE PUSH1 0x24 PUSH1 0x0 REVERT JUMPDEST POP SWAP2 SWAP1 POP JUMP JUMPDEST PUSH1 0x1F DUP3 GT ISZERO PUSH2 0x1037 JUMPI DUP1 PUSH1 0x0 MSTORE PUSH1 0x20 PUSH1 0x0 KECCAK256 PUSH1 0x1F DUP5 ADD PUSH1 0x5 SHR DUP2 ADD PUSH1 0x20 DUP6 LT ISZERO PUSH2 0x1014 JUMPI POP DUP1 JUMPDEST PUSH1 0x1F DUP5 ADD PUSH1 0x5 SHR DUP3 ADD SWAP2 POP JUMPDEST DUP2 DUP2 LT ISZERO PUSH2 0x1034 JUMPI PUSH1 0x0 DUP2 SSTORE PUSH1 0x1 ADD PUSH2 0x1020 JUMP JUMPDEST POP POP JUMPDEST POP POP POP JUMP JUMPDEST DUP2 MLOAD PUSH1 0x1 PUSH1 0x1 PUSH1 0x40 SHL SUB DUP2 GT ISZERO PUSH2 0x1055 JUMPI PUSH2 0x1055 PUSH2 0x954 JUMP JUMPDEST PUSH2 0x1069 DUP2 PUSH2 0x1063 DUP5 SLOAD PUSH2 0xFB3 JUMP JUMPDEST DUP5 PUSH2 0xFED JUMP JUMPDEST PUSH1 0x20 PUSH1 0x1F DUP3 GT PUSH1 0x1 DUP2 EQ PUSH2 0x109D JUMPI PUSH1 0x0 DUP4 ISZERO PUSH2 0x1085 JUMPI POP DUP5 DUP3 ADD MLOAD JUMPDEST PUSH1 0x0 NOT PUSH1 0x3 DUP6 SWAP1 SHL SHR NOT AND PUSH1 0x1 DUP5 SWAP1 SHL OR DUP5 SSTORE PUSH2 0x1034 JUMP JUMPDEST PUSH1 0x0 DUP5 DUP2 MSTORE PUSH1 0x20 DUP2 KECCAK256 PUSH1 0x1F NOT DUP6 AND SWAP2 JUMPDEST DUP3 DUP2 LT ISZERO PUSH2 0x10CD JUMPI DUP8 DUP6 ADD MLOAD DUP3 SSTORE PUSH1 0x20 SWAP5 DUP6 ADD SWAP5 PUSH1 0x1 SWAP1 SWAP3 ADD SWAP2 ADD PUSH2 0x10AD JUMP JUMPDEST POP DUP5 DUP3 LT ISZERO PUSH2 0x10EB JUMPI DUP7 DUP5 ADD MLOAD PUSH1 0x0 NOT PUSH1 0x3 DUP8 SWAP1 SHL PUSH1 0xF8 AND SHR NOT AND DUP2 SSTORE JUMPDEST POP POP POP POP PUSH1 0x1 SWAP1 DUP2 SHL ADD SWAP1 SSTORE POP JUMP JUMPDEST PUSH4 0x4E487B71 PUSH1 0xE0 SHL PUSH1 0x0 MSTORE PUSH1 0x11 PUSH1 0x4 MSTORE PUSH1 0x24 PUSH1 0x0 REVERT JUMPDEST PUSH1 0x0 DUP2 PUSH2 0x111F JUMPI PUSH2 0x111F PUSH2 0x10FA JUMP JUMPDEST POP PUSH1 0x0 NOT ADD SWAP1 JUMP JUMPDEST PUSH1 0x0 PUSH1 0x1 DUP3 ADD PUSH2 0x1139 JUMPI PUSH2 0x1139 PUSH2 0x10FA JUMP JUMPDEST POP PUSH1 0x1 ADD SWAP1 JUMP INVALID LOG2 PUSH5 0x6970667358 0x22 SLT KECCAK256 0xAD PUSH7 0xA94B9DCD10FB06 0x4D DUP13 CREATE2 PUSH24 0x65E14F13289143D56847C6C71C588FCDFBC1C464736F6C63 NUMBER STOP ADDMOD SHL STOP CALLER "},"methodIdentifiers":{"deletePatient(uint256)":"67e57482","editPatientData(uint256,string,string,string,string,string,string[],string[],string[],string,string,string)":"56f00aff","patientCount()":"a0303c41","patients(uint256)":"93119a83","setPatientData(string,string,string,string,string,string[],string[],string[],string,string,string)":"b1e9b894"}}}}}