{
  "_format": "hh-sol-artifact-1",
  "contractName": "PatientData",
  "sourceName": "contracts/PatientData.sol",
  "abi": [
    {
      "inputs": [
        {
          "internalType": "uint256",
          "name": "patientId",
          "type": "uint256"
        }
      ],
      "name": "deletePatient",
      "outputs": [],
      "stateMutability": "nonpayable",
      "type": "function"
    },
    {
      "inputs": [
        {
          "internalType": "uint256",
          "name": "patientId",
          "type": "uint256"
        },
        {
          "internalType": "string",
          "name": "nome",
          "type": "string"
        },
        {
          "internalType": "string",
          "name": "cpf",
          "type": "string"
        },
        {
          "internalType": "string",
          "name": "dataNascimento",
          "type": "string"
        },
        {
          "internalType": "string",
          "name": "dataConsulta",
          "type": "string"
        },
        {
          "internalType": "string",
          "name": "relato",
          "type": "string"
        },
        {
          "internalType": "string[]",
          "name": "medicacoes",
          "type": "string[]"
        },
        {
          "internalType": "string[]",
          "name": "doencasPreexistentes",
          "type": "string[]"
        },
        {
          "internalType": "string[]",
          "name": "alergias",
          "type": "string[]"
        },
        {
          "internalType": "string",
          "name": "diagnostico",
          "type": "string"
        },
        {
          "internalType": "string",
          "name": "examesSolicitados",
          "type": "string"
        },
        {
          "internalType": "string",
          "name": "anotacoesRetorno",
          "type": "string"
        }
      ],
      "name": "editPatientData",
      "outputs": [],
      "stateMutability": "nonpayable",
      "type": "function"
    },
    {
      "inputs": [],
      "name": "patientCount",
      "outputs": [
        {
          "internalType": "uint256",
          "name": "",
          "type": "uint256"
        }
      ],
      "stateMutability": "view",
      "type": "function"
    },
    {
      "inputs": [
        {
          "internalType": "uint256",
          "name": "",
          "type": "uint256"
        }
      ],
      "name": "patients",
      "outputs": [
        {
          "internalType": "string",
          "name": "nome",
          "type": "string"
        },
        {
          "internalType": "string",
          "name": "cpf",
          "type": "string"
        },
        {
          "internalType": "string",
          "name": "dataNascimento",
          "type": "string"
        },
        {
          "internalType": "string",
          "name": "dataConsulta",
          "type": "string"
        },
        {
          "internalType": "string",
          "name": "relato",
          "type": "string"
        },
        {
          "internalType": "string",
          "name": "diagnostico",
          "type": "string"
        },
        {
          "internalType": "string",
          "name": "examesSolicitados",
          "type": "string"
        },
        {
          "internalType": "string",
          "name": "anotacoesRetorno",
          "type": "string"
        }
      ],
      "stateMutability": "view",
      "type": "function"
    },
    {
      "inputs": [
        {
          "internalType": "string",
          "name": "nome",
          "type": "string"
        },
        {
          "internalType": "string",
          "name": "cpf",
          "type": "string"
        },
        {
          "internalType": "string",
          "name": "dataNascimento",
          "type": "string"
        },
        {
          "internalType": "string",
          "name": "dataConsulta",
          "type": "string"
        },
        {
          "internalType": "string",
          "name": "relato",
          "type": "string"
        },
        {
          "internalType": "string[]",
          "name": "medicacoes",
          "type": "string[]"
        },
        {
          "internalType": "string[]",
          "name": "doencasPreexistentes",
          "type": "string[]"
        },
        {
          "internalType": "string[]",
          "name": "alergias",
          "type": "string[]"
        },
        {
          "internalType": "string",
          "name": "diagnostico",
          "type": "string"
        },
        {
          "internalType": "string",
          "name": "examesSolicitados",
          "type": "string"
        },
        {
          "internalType": "string",
          "name": "anotacoesRetorno",
          "type": "string"
        }
      ],
      "name": "setPatientData",
      "outputs": [],
      "stateMutability": "nonpayable",
      "type": "function"
    }
  ],
  "bytecode": "0x6080604052348015600f57600080fd5b506111768061001f6000396000f3fe608060405234801561001057600080fd5b50600436106100575760003560e01c806356f00aff1461005c57806367e574821461007157806393119a8314610084578063a0303c41146100b4578063b1e9b894146100cb575b600080fd5b61006f61006a366004610aaf565b6100de565b005b61006f61007f366004610cbc565b6101b2565b610097610092366004610cbc565b610271565b6040516100ab989796959493929190610d1b565b60405180910390f35b6100bd60015481565b6040519081526020016100ab565b61006f6100d9366004610dc9565b6106f1565b60008c8152602081905260409020806100f78d8261103c565b50600181016101068c8261103c565b50600281016101158b8261103c565b50600381016101248a8261103c565b5060048101610133898261103c565b50865161014990600583019060208a0190610875565b50855161015f9060068301906020890190610875565b5084516101759060078301906020880190610875565b5060088101610184858261103c565b5060098101610193848261103c565b50600a81016101a2838261103c565b5050505050505050505050505050565b6000818152602081905260408120906101cb82826108cb565b6101d96001830160006108cb565b6101e76002830160006108cb565b6101f56003830160006108cb565b6102036004830160006108cb565b610211600583016000610908565b61021f600683016000610908565b61022d600783016000610908565b61023b6008830160006108cb565b6102496009830160006108cb565b610257600a830160006108cb565b50506001805490600061026983611110565b919050555050565b60006020819052908152604090208054819061028c90610fb3565b80601f01602080910402602001604051908101604052809291908181526020018280546102b890610fb3565b80156103055780601f106102da57610100808354040283529160200191610305565b820191906000526020600020905b8154815290600101906020018083116102e857829003601f168201915b50505050509080600101805461031a90610fb3565b80601f016020809104026020016040519081016040528092919081815260200182805461034690610fb3565b80156103935780601f1061036857610100808354040283529160200191610393565b820191906000526020600020905b81548152906001019060200180831161037657829003601f168201915b5050505050908060020180546103a890610fb3565b80601f01602080910402602001604051908101604052809291908181526020018280546103d490610fb3565b80156104215780601f106103f657610100808354040283529160200191610421565b820191906000526020600020905b81548152906001019060200180831161040457829003601f168201915b50505050509080600301805461043690610fb3565b80601f016020809104026020016040519081016040528092919081815260200182805461046290610fb3565b80156104af5780601f10610484576101008083540402835291602001916104af565b820191906000526020600020905b81548152906001019060200180831161049257829003601f168201915b5050505050908060040180546104c490610fb3565b80601f01602080910402602001604051908101604052809291908181526020018280546104f090610fb3565b801561053d5780601f106105125761010080835404028352916020019161053d565b820191906000526020600020905b81548152906001019060200180831161052057829003601f168201915b50505050509080600801805461055290610fb3565b80601f016020809104026020016040519081016040528092919081815260200182805461057e90610fb3565b80156105cb5780601f106105a0576101008083540402835291602001916105cb565b820191906000526020600020905b8154815290600101906020018083116105ae57829003601f168201915b5050505050908060090180546105e090610fb3565b80601f016020809104026020016040519081016040528092919081815260200182805461060c90610fb3565b80156106595780601f1061062e57610100808354040283529160200191610659565b820191906000526020600020905b81548152906001019060200180831161063c57829003601f168201915b50505050509080600a01805461066e90610fb3565b80601f016020809104026020016040519081016040528092919081815260200182805461069a90610fb3565b80156106e75780601f106106bc576101008083540402835291602001916106e7565b820191906000526020600020905b8154815290600101906020018083116106ca57829003601f168201915b5050505050905088565b6040518061016001604052808c81526020018b81526020018a81526020018981526020018881526020018781526020018681526020018581526020018481526020018381526020018281525060008060015481526020019081526020016000206000820151816000019081610766919061103c565b506020820151600182019061077b908261103c565b5060408201516002820190610790908261103c565b50606082015160038201906107a5908261103c565b50608082015160048201906107ba908261103c565b5060a082015180516107d6916005840191602090910190610875565b5060c082015180516107f2916006840191602090910190610875565b5060e0820151805161080e916007840191602090910190610875565b506101008201516008820190610824908261103c565b50610120820151600982019061083a908261103c565b50610140820151600a820190610850908261103c565b5050600180549150600061086383611127565b91905055505050505050505050505050565b8280548282559060005260206000209081019282156108bb579160200282015b828111156108bb57825182906108ab908261103c565b5091602001919060010190610895565b506108c7929150610922565b5090565b5080546108d790610fb3565b6000825580601f106108e7575050565b601f016020900490600052602060002090810190610905919061093f565b50565b508054600082559060005260206000209081019061090591905b808211156108c757600061093682826108cb565b50600101610922565b5b808211156108c75760008155600101610940565b634e487b7160e01b600052604160045260246000fd5b604051601f8201601f191681016001600160401b038111828210171561099257610992610954565b604052919050565b600082601f8301126109ab57600080fd5b81356001600160401b038111156109c4576109c4610954565b6109d7601f8201601f191660200161096a565b8181528460208386010111156109ec57600080fd5b816020850160208301376000918101602001919091529392505050565b600082601f830112610a1a57600080fd5b81356001600160401b03811115610a3357610a33610954565b8060051b610a436020820161096a565b91825260208185018101929081019086841115610a5f57600080fd5b6020860192505b83831015610aa55782356001600160401b03811115610a8457600080fd5b610a93886020838a010161099a565b83525060209283019290910190610a66565b9695505050505050565b6000806000806000806000806000806000806101808d8f031215610ad257600080fd5b8c359b506001600160401b0360208e01351115610aee57600080fd5b610afe8e60208f01358f0161099a565b9a506001600160401b0360408e01351115610b1857600080fd5b610b288e60408f01358f0161099a565b99506001600160401b0360608e01351115610b4257600080fd5b610b528e60608f01358f0161099a565b98506001600160401b0360808e01351115610b6c57600080fd5b610b7c8e60808f01358f0161099a565b97506001600160401b0360a08e01351115610b9657600080fd5b610ba68e60a08f01358f0161099a565b96506001600160401b0360c08e01351115610bc057600080fd5b610bd08e60c08f01358f01610a09565b95506001600160401b0360e08e01351115610bea57600080fd5b610bfa8e60e08f01358f01610a09565b94506001600160401b036101008e01351115610c1557600080fd5b610c268e6101008f01358f01610a09565b93506001600160401b036101208e01351115610c4157600080fd5b610c528e6101208f01358f0161099a565b92506001600160401b036101408e01351115610c6d57600080fd5b610c7e8e6101408f01358f0161099a565b91506001600160401b036101608e01351115610c9957600080fd5b610caa8e6101608f01358f0161099a565b90509295989b509295989b509295989b565b600060208284031215610cce57600080fd5b5035919050565b6000815180845260005b81811015610cfb57602081850181015186830182015201610cdf565b506000602082860101526020601f19601f83011685010191505092915050565b61010081526000610d3061010083018b610cd5565b8281036020840152610d42818b610cd5565b90508281036040840152610d56818a610cd5565b90508281036060840152610d6a8189610cd5565b90508281036080840152610d7e8188610cd5565b905082810360a0840152610d928187610cd5565b905082810360c0840152610da68186610cd5565b905082810360e0840152610dba8185610cd5565b9b9a5050505050505050505050565b60008060008060008060008060008060006101608c8e031215610deb57600080fd5b8b356001600160401b03811115610e0157600080fd5b610e0d8e828f0161099a565b9b505060208c01356001600160401b03811115610e2957600080fd5b610e358e828f0161099a565b9a505060408c01356001600160401b03811115610e5157600080fd5b610e5d8e828f0161099a565b99505060608c01356001600160401b03811115610e7957600080fd5b610e858e828f0161099a565b98505060808c01356001600160401b03811115610ea157600080fd5b610ead8e828f0161099a565b97505060a08c01356001600160401b03811115610ec957600080fd5b610ed58e828f01610a09565b96505060c08c01356001600160401b03811115610ef157600080fd5b610efd8e828f01610a09565b95505060e08c01356001600160401b03811115610f1957600080fd5b610f258e828f01610a09565b9450506101008c01356001600160401b03811115610f4257600080fd5b610f4e8e828f0161099a565b9350506101208c01356001600160401b03811115610f6b57600080fd5b610f778e828f0161099a565b9250506101408c01356001600160401b03811115610f9457600080fd5b610fa08e828f0161099a565b9150509295989b509295989b9093969950565b600181811c90821680610fc757607f821691505b602082108103610fe757634e487b7160e01b600052602260045260246000fd5b50919050565b601f82111561103757806000526020600020601f840160051c810160208510156110145750805b601f840160051c820191505b818110156110345760008155600101611020565b50505b505050565b81516001600160401b0381111561105557611055610954565b611069816110638454610fb3565b84610fed565b6020601f82116001811461109d57600083156110855750848201515b600019600385901b1c1916600184901b178455611034565b600084815260208120601f198516915b828110156110cd57878501518255602094850194600190920191016110ad565b50848210156110eb5786840151600019600387901b60f8161c191681555b50505050600190811b01905550565b634e487b7160e01b600052601160045260246000fd5b60008161111f5761111f6110fa565b506000190190565b600060018201611139576111396110fa565b506001019056fea2646970667358221220ad66a94b9dcd10fb064d8cf57765e14f13289143d56847c6c71c588fcdfbc1c464736f6c634300081b0033",
  "linkReferences": {},
  "deployedLinkReferences": {}
}